:100000006F00106700000000600100006201000046
:1000100000000000000000000000000000000000E0
:1000200000000000000000000000000000000000D0
:100030006E0E0000000000006E0E000000000000C8
:100040006E0E00006E0E00006E0E00006E0E0000C0
:100050006E0E00006E0E0000D60400006E0E000052
:100060006E0E00006E0E00006E0E00006E0E0000A0
:100070006E0E00006E0E00006E0E00006E0E000090
:100080006E0E00006E0E00006E0E00006E0E000080
:100090006E0E00006E0E00006E0E00006E0E000070
:0800A0006E0E000000000000DC
:1000A800511126C022C206C4828282441244A24050
:1000B80031018280634E050263C305042E86AA853A
:1000C8007D5515C285466378B6006356C00006069E
:1000D8008606E36CB6FE014563E4C500918D558D37
:1000E80085820582F5FA82808682C93F2E858282C2
:1000F8003305A0406347B000B305B040C1B7B305AE
:10010800B0408682653F3305A0408282868263C7FD
:100118000500634905005D372E858282B305B0402E
:10012800E35B05FE3305A040513F3305B0408282B2
:1001380000002A8309CA83830500230073007D1603
:10014800050385056DFA82802A8311C62300B30052
:100158007D16050365FE828001A0B707EFBE37E76D
:1001680000E0938707083CC701A0EFF27FF3130173
:1001780041FD614681454808C13F8545114502C496
:1001880002C602C802C002C2EF10406A85451305C4
:100198000020EF10A0693165EF10E05B37150140D2
:1001A80091472C00130505807C8402C8EF00B079C4
:1001B800C1472C0037150140372401407C8402C810
:1001C800EF00707813050440EF00F0518D47854427
:1001D8004C08130504402304F10226CC02CA02CEBF
:1001E80002D002D2EF00D052130504409D460546C6
:1001F8008145EF00F058130504409D46094689459E
:10020800EF0010589D460D46130504408145EF0048
:100218003057854513050440EF00505F9307D01110
:100228000A857C8026C223010100EF10A04C13052B
:1002380004408545EF00B053130504408545EF00A1
:100248001052854513050440EF00D05D1301C1022B
:10025800A9BDEFF2FFE4AA84056531112E841305C8
:100268000581854502C402C62318010002C002C2E6
:10027800EF10C05B6084373401402C00130504C0C4
:1002880064862317010023150100EF10C05F930750
:1002980030027C800A8585475C813EC2EF1080452C
:1002A800130504C093050002EF10006A8545130585
:1002B80004C0EF1000645101CDBB51113706002076
:1002C8002398018022C426C22AC093076009130616
:1002D800061382456384051C138527009395170030
:1002E8000605B29532958E210A21AA95858523AEF9
:1002F800B182938517008605B2958E219304F00785
:10030800C205C18123ACB18203A5C18383A5C1867F
:10031800AA9523A6B18603A3818383A541869A95CE
:1003280023A2B186370500200323450083A5C18396
:10033800B385654023AEB182B705002083A20500CE
:1003480003A381833303534023AC618283A3C18316
:1003580083A2C1819E9223AE518003A4818383A28C
:100368008181A29223AC518083A24181850223AA74
:10037800518063F2540623AA018083A2C18163508D
:1003880050148322450085022322550083A28181CF
:10039800635B501283A20500850223A055008322C7
:1003A800450063D302008142056463C4820093025E
:1003B800F4FF2322550003A50500635305000145FA
:1003C8000564634485001305F4FF23A0A50023AE4C
:1003D800018023AC018083A5C18383A2C18303A3C9
:1003E8004185B3855502056499859A9523AAB184F8
:1003F80003A3818383A3818383A2C184330373020C
:1004080013536340169323A6618483A2C18383A3F5
:10041800818383A6C185B382720293D26240B69269
:1004280023AE518483A24184850223A2518483A3ED
:1004380041849302F47663F6720483A3C186A2848E
:1004480023A4718603A4418623A0818603A4418541
:1004580023A8818403A4C18423A4818403A4C1851F
:1004680023AC818423AE018423A6018623A20186BE
:1004780023AA018423A6018423A20184854523801D
:10048800B1848D079306C012E395D7E422449307FD
:1004980020032398F1809244310182809385A7F646
:1004A8001385C7F686050605B29532958E210A2171
:1004B800AA95858523AEB1829385B7F62DBD832293
:1004C8004500FD12D1B583A20500FD12F9B511450D
:1004D800EF00D04611C50145CD331145EF00304638
:1004E8000945EF00B04511C50545C13B0945EF0079
:1004F800104573002030EFF2BFBA1301C1FC3284FB
:100508002AC01306C0022EC228008145B6842D39A0
:1005180085450545EF10A02F0245EF0030329307BF
:1005280000083ECE93070010124702453ED09307BD
:1005380000403ED2930700023ED42C008D673AC497
:1005480022C626CA3ED602C802CC02D8EF003038EE
:100558001301410399BEEFF2BFB42A84B7440140A6
:10056800B74701409305000413850780EF10A04AA0
:1005780065D993150401C18113850480EF102049C2
:100588002DB6EFF2FFB12A840305040011E131BE54
:100598000504D137D5BFEFF2BFB0411111E51305FE
:1005A8000003553F410111B62A846357050013051E
:1005B800D00255373304804058008144A94522852C
:1005C8003AC0A936024713050503A94508A32285A1
:1005D800D534024785042A8405076DF1FD147D573B
:1005E800E382E4FC93874400338727000305070070
:1005F8009D37EDB7EFF2DFAA7111AA840544A94728
:10060800B1E92685EF20404C2AC0EF20E051AA85A9
:100618002685EF20A00FAA842285EF20E050AA8526
:100628002685EF10F060EF20204AAA840245A537FE
:100638001305E0020D379DC493D7F441BD8C9D8C02
:100648002285A945853C2A8463CAA4002685A1374A
:100658001101A1BC3304F402FD155DB713050003B5
:10066800DD3DF9BF13050003FD35DDB7EFF25FA3EC
:1006780021110545EF10A007EF008078EF10403AF0
:10068800716513050520EF10A03C0D65130585D194
:10069800CD3D0D65130545D2ED35B707002003A5FF
:1006A800470337040240C53D0D65130505D2D13D0A
:1006B80035210145A1210D66130606D38145014563
:1006C800E129653437060020B72501409306C0129A
:1006D800130606139385C54413058400293DB7E71F
:1006E80000E03707400023A0E710054689451305B9
:1006F8008400EF0090220546914513058400EF0021
:10070800D021854513058400EF00F01F9D45130592
:10071800703E81368D6703A787DC83A7C7DC3AC4A0
:100728003EC683C70184F5DF83A4818683A701863B
:1007380003A501850D643EC0EF20003F0D678325AA
:1007480047DBEF10F04E832584DBEF10B010EF107D
:1007580060362AC203A58184EF20003D0D678325FA
:1007680047DBEF10F04C832584DBEF10B00EEF1061
:10077800603483A781852AC826853ECAEF20C03AFF
:10078800832584DBEF10100D8D6783A5C7DBEF1081
:10079800304A23A8A1820245EF200039832584DB53
:1007A800EF10500B0D63832503DCEF1070488D6745
:1007B80083A5C7DB23A4A1821245EF1070470D6300
:1007C800832503DC23AAA1824245EF10704623A6A5
:1007D800A1825245EF2040350D67832547DBEF1096
:1007E8003045832584DB0D64EF10D0068D6783A523
:1007F800C7DBEF10F0430D63832503DCEF10504394
:1008080023A2A1820D65130585D3A53B03A5018508
:1008180059330D65130505D4AD33B707002003A57B
:100828004700953B130504D2A93B8D67138587D4F0
:10083800893B03A501838D45753B0D65130505D5DA
:10084800893303A541838D457533130504D2153BC0
:100858000D65130585D5353303A581842D3B0D65BD
:10086800130505D6393B3707002003250700253334
:10087800130504D239338D67138587D4193303A53B
:1008880081828D45853B0D65130585D6DD3903A528
:10089800C1828D458533130504D2E53183A7418391
:1008A8003E853EC0EF2080352246B246EF108036A6
:1008B800635FA00C83A7C1823E853EC2EF2000344F
:1008C8002246B246EF1000356353A00C03A44182C0
:1008D800131514000581EF2060328D6703A607DD2C
:1008E80083A647DDEF1000336353A00A9245024503
:1008F800EF101034AA852285EF10C07523A0A182BD
:100908000D65130505D7B53903A541828D45DD3140
:100918000D65130545D7B53103A501828D45D93934
:100928000D651305C5D7B1390D66130646D881453F
:1009380001459D2403A641838D46B14501454124C7
:100948000D66130606D981450545B92403A6C1825B
:100958008546B1450545A5240D661306C6D98145CA
:1009680009451D2C03A641828946B1450945812CBC
:100978000D66130686DA81450D45392C03A60182DA
:100988008946C9450D45252C2380018459BB13058B
:100998000000ADB7EFF2CFF071112A842EC0B75422
:1009A8000040B7570040B705020013850740EF0025
:1009B800F05065F9854513850440EF00D048B70429
:1009C800030093851400B754004013850440EF00DA
:1009D800904DB70703009385170075D5138504401C
:1009E800014693058007B7040700EF00F04A938497
:1009F800240837550040A68513050540EF00B04A86
:100A08006DD98247B304F4000C20B7570040138512
:100A18000740EF003048B705070093854508B757EA
:100A2800004013850740EF001048B707070093857B
:100A3800470875D50504E31994FCB7570040854568
:100A480013850740EF00D04111016FF00FE6EFF278
:100A58002FE51111AA842E844545854502C002C29E
:100A680002C402C602C802CA02CCEF00305C854547
:100A780037052000EF00705D91477C8071478547FE
:100A88008A85371501403AC43EC2752D894671479B
:100A980085478A853715014074803AC43EC265256A
:100AA800B707FFBF3EC8E0829307004037540040B5
:100AB800FC836C00916713050440FC8426C6EF0094
:100AC8003029130504408545EF0070368545130528
:100AD8000440EF00903A71016FF02FDDEFF24FDC28
:100AE8006165930580071305056A9537370500206A
:100AF800ED4513058500793D6FF02FDBEFF24FDAF6
:100B0800B727205F6111938707103EC09307200223
:100B18002A847C829D458D470A855C83A53D930781
:100B28000004C0805C80130400107D1442048945D1
:100B38000A854180853575F821016FF00FD7EFF2EE
:100B48002FD689676111938707107C809307F0057A
:100B5800DC8193850502930720024C815C82C88260
:100B68008D470A859D4532845C832D3593070004A3
:100B78005C80011495473304F4028D65938585DD07
:100B8800154613051100A295EFF0AFDA0A859945CD
:100B9800113521016FF06FD1EFF28FD071112E84D2
:100BA800B284902001E611016FF02FD0A2852AC0EF
:100BB80019047137024585041374F40FDDB7EFF299
:100BC8002FCE130181FC05473AC02AC22EC43284B5
:100BD800B684B6872947A1E32285EF10F06E2AC6AE
:100BE800EF109074AA852285EF1050322A840245AE
:100BF800EF109073AA852285EF109003EF10D06C48
:100C08003246AA8719EE130700032304E1021307EB
:100C18009102814691A88246FD17B386E60236C046
:100C28005DBF3810E35706FE1307D0022304E10224
:100C38003306C040E9BF3ECAA9459387C60132853D
:100C4800338427003ACC36C832C6EFF02FCC324670
:100C58001305050308A0A9453285EFF0AFC5C246C4
:100C6800D24762472A86850679F6B6853A857D5346
:100C7800FD150505639E6502138416003A943697A0
:100C88009306E00214A395EF63D304008144228500
:100C9800268693050003EFF02FCB2694A245124534
:100CA800301023000400CD3D130181036FF0EFBF26
:100CB8001384C501B302240083C20200A30F55FEAA
:100CC80045BF13D7F7410245B98F998FA94532C857
:100CD8003EC6EFF02FBEB24742469304000363CFEF
:100CE800A70264080506A9453E8532C63EC0EFF056
:100CF800EFC182471305050388A0A9453E85EFF09B
:100D08006FBB3246AA878504740869FD2287B287BB
:100D1800FD55FD17639EB700329449B7A94504A055
:100D280032C63EC0EFF00FB905043246824745BFD0
:100D38003385F60008210507A30FA7FED9BFEFF2F8
:100D48002FB68946B72702403714024094C31C4087
:100D58003707FF68C17493E717001CC05C40FD1497
:100D6800F98F5CC01C403707D7FE6D17F98F37071E
:100D78001000D98F1CC01C403707FCFF7D17F98F66
:100D88001CC05C40E58F5CC0B7079D001CC41C4CB0
:100D980093E707021CCCB717014093870740984395
:100DA8001377F7F098C398431367070898C394CB51
:100DB8007D215C4037070001B70600025CC05C403B
:100DC800E58F5CC05C405CC01C40D98F1CC0B71765
:100DD80002409843758F75DFD843B7160240719B60
:100DE800D8C3D84313672700D8C32147DC42B18B47
:100DF800E39EE7FEB7270240094798C36FF0EFAAC2
:100E0800371702405C43A146B18B6394D7045C4317
:100E18003775DC02130505C0B7160240D842B7077C
:100E280000209387470211833D8BBA979C23D842B1
:100E380093F5F70F13770708B357F50005E3EFF2BB
:100E48002FA6EFF0AFA737070020232AA7026FF0DD
:100E5800CFA537356E01130505607DBF3707002024
:100E6800232AF702828001A097010020938101A51F
:100E780013810174172500001305C52E97F5FF1F70
:100E88009385C5171386018163FAC500832205007F
:100E980023A0550011059105E3EAC5FE13850181DC
:100EA800938501AD6377B500232005001105E36D37
:100EB800B5FE896293820288739002308D427390E6
:100EC800428097F2FFFF9382621393E2320073909D
:100ED8005230EFF0DFE697F2FFFF9382627973906A
:100EE800123473002030B7270140938707406310FE
:100EF800F502EFF2EF9A854513050020EF00D016B2
:100F0800814513050020EF0030166FF00F9A82809C
:100F18005841B707F1FF9387F7EF7D8FDC41944184
:100F2800A207D58FD98F5CC11845B7F7F1FF938712
:100F3800D77FD4457D8F9C49D58F94458606D58F1C
:100F4800D98F1CC55855B70710FFFD177D8FDC29B1
:100F5800FD1793F7F70FD207D98F5CD582801C4510
:100F680089C593E717001CC58280F99BEDBF1C4516
:100F780089C593E707101CC5828093F7F7EFE5BF93
:100F88000D473387E502032305019D47B397E70023
:100F980093C7F7FFB3F76700B396E600DD8E14C971
:100FA800994763E2C70295477D163306F6025859FA
:100FB800FD47B397C70093C7F7FFF98F3396C5006E
:100FC8005D8E50D98280B14763E2C70295476516A6
:100FD8003306F6021859FD47B397C70093C7F7FFC2
:100FE800F98F3396C5005D8E10D9828095474D16CE
:100FF8003306F6025855FD47B397C70093C7F7FF66
:10100800F98FB395C500DD8D4CD582801C4591C5FF
:1010180037071000D98F1CC582803707F0FF7D176E
:10102800F98FD5BF5C4191C537070004D98F5CC1E2
:101038008280370700FC7D17F98FD5BF1C414167B7
:101048007917F98F1CC123200500232205002324CA
:101058000500B7070240232605001387870063179A
:10106800E500D8431367F700D8C382801387C70108
:101078006316E500D8431367070FFDB71387070307
:101088006318E500D8438566938606F0558FE9BF57
:10109800138747046315E500D843BD66C5BF1387AA
:1010A80087056316E500D843B7060F00C5B7138751
:1010B800C7066316E500D843B706F000C1BF13871B
:1010C8000708E314E5FAD843B706000FC1B718417B
:1010D800E177BD0794517D8F9C45D58F9449D58F75
:1010E800D449D58F944DD58FD44DD58FD451D58F24
:1010F8009455D58FD98F1CC1DC455CC19C411CC55A
:10110800DC415CC582801C4189C593E717001CC17E
:10111800828041677917F98FDDBF1C4101C6CD8FE9
:101128001CC1828093C5F5FFFD8D0CC18280B70775
:1011380002409C437D8D3335A0008280CDBFB70728
:101148000240C8C38280944593F7060113F3F60062
:1011580081C7DC413363F30083D2050093F7F20FB4
:10116800A9CF0C41611122C226C081479303800296
:101178003D449304800405473317F70033F6E20033
:101188006310C7026397760258C91396270033176E
:10119800C4001347F7FF6D8F3316C300B365E6002D
:1011A80085072147E399E7FC12440CC182442101D9
:1011B8008280E39C96FC18C9C9BF8280370301402E
:1011C800B70700088326C300135605011317050146
:1011D800E98F3D8A4183BDC7B7073000B372F50078
:1011E8006394F202370600F97D16B3F7C60083262A
:1011F800C300F18E2326D30095C5458113750507D5
:101208003317A700D98F39A8B7074000E98F99CFBE
:101218009D47B397C70093C7F7FFF58F81C533166E
:10122800C700D18F370701405CC78280B70720000D
:101238006393F20041069D47B397C70093C7F7FF32
:10124800F58F5DBFB7071000E98F99C3BD47EDB7AC
:101258009357150193F70707B317F700C5B7EFE2E0
:101268003FE4511185451305C00302C002C202C400
:10127800752BB7F7FF1F03A74770B7065200938671
:1012880006609377F7F06386D70A63E2F60CB70631
:101298002400938606606382D72063E0F604B706CD
:1012A8002200938606606386D72663EFF600C1772F
:1012B8009387F7F0F98F3707200013070760639BC0
:1012C800E7009307900F35A8370723001307076037
:1012D8006389E72031016FE05FDDB7065000938630
:1012E80006606385D71A63E0F604C1779387F7F041
:1012F8007D8FB707400093870760E39DE7FC93075E
:10130800900E371401407C808A859307800213056C
:1013180004803EC40D3D9307F0077C808A85130541
:1013280004C0153545BF3707510013070760E3931D
:10133800E7FA93079006371401407C808A85930763
:101348008002130504803EC4FD3BAD47F9B737075B
:10135800640013070760E386E7F66361F70637075B
:10136800620013070760E38CE7F86364F704370744
:10137800530013070760638DE70C370761001307F5
:101388000760E399E7F493070008371401407C806D
:101398008A8593078002130504803EC46D33930742
:1013A80040078A85130504C07C80713B9307800C35
:1013B800ADA0370763001307076081B737177300BD
:1013C800130707806386E702636BF700371770001F
:1013D800130707806388E704370771004DB737178D
:1013E800740013070780E397E7EE9307000C71BFBB
:1013F8009307000C371401407C808A85930780028C
:10140800130504803EC48133930740078A8513057A
:1014180004C07C800D3B9307900C7C808A8537152F
:10142800014001B79307000C371401407C808A857E
:1014380093078002130504803EC4313393074007A5
:101448008A85130504C07C80FD399307B00CF1B779
:1014580093079006371401407C808A8593078002A1
:10146800130504803EC4C531AD478A85130504C001
:101478007C80EFF05FCD9307C0028A853715014065
:101488007C80EFF05FCC9307C006B9A09307800C6F
:101498007C80930780023EC451B79307900F37149E
:1014A80001407C808A8593078002130504803EC42E
:1014B800EFF07FC99307F0078A85130504C07C8085
:1014C800EFF07FC89307900E8A85371501407C801E
:1014D800EFF07FC79307D0087C808A851305044006
:1014E80089B59307900F371401407C808A8593074C
:1014F8008002130504803EC4EFF0FFC49307F00791
:101508008A85130504C07C80EFF0FFC3930760024F
:10151800ADB79307900F371401407C808A859307F5
:101528008002130504803EC4EFF0FFC19307F00763
:101538008A85130504C07C80EFF0FFC09307000282
:101548008A85371501407C80EFF0FFBFB54769B742
:10155800EFE21FB55E211111AA84C207C18393F778
:1015680007FCC207C18328002E843EC20124C2475B
:10157800B7450F00938505243E853EC0EFE01FB4B4
:1015880092470C40C98FC207C183DEA09E20C207C4
:10159800C183F99BC207C1839EA0E1679387076A4D
:1015A80063E5B70402458605EFE05FB1AA87420507
:1015B800418191466373D5009147C207C183DEAC70
:1015C8009E205620322493E717009EA09E20D18E9D
:1015D800C207C18393F757BFD58F9EA016245E24F8
:1015E800D58F9EA471016FE05FAC7620B167FD17BF
:1015F8006393F6028D47B385F5020245EFE01FAC11
:1016080093170501C1839396470199E293E7170061
:10161800A166D58F6DB7E547B385F5020245EFE0C2
:10162800FFA993170501C1839166D58FE9BF1E21D4
:1016380089C593E717001EA18280C207C183F99B61
:10164800C207C183CDBF1E2189C593E707101EA11C
:101658008280C207C18393F7F7EFC207C183C5BF72
:101668001E2189C593E707201EA18280C207C18376
:1016780093F7F7DFC207C183C5BF1E2189C593E76A
:1016880007401EA18280C207C18393F7F7BFC20734
:10169800C183C5BF0EA9828093F7E50F19C293E7EE
:1016A80015001EA982805E290A2D42055D8D6D8D6B
:1016B800220521810D8D133515008280611102C02C
:1016C80002C293D7C5012AC23EC08247A205A181A2
:1016D80099CB9247D1073EC29247884321016D8D2D
:1016E8003335A00082809247C181E107EDB723A47A
:1016F800A1AC828003A781AC854714216310F7024F
:101708001C31639CE7023C219A0793E707F837E707
:1017180000E093F7F70F36972300F740054793D774
:1017280056003317D700544189CE938707048A0798
:10173800B7E600E0B69798C38280EDF33C219A079C
:10174800F9B793870706B7E600E08A07B69798C304
:101758000F1000008280B7160240DC423707FF7F77
:101768001307F77FF98FC98FDCC28280EFE25F939E
:10177800371702405C43A1462A84B18B6394D7088B
:101788005C43B777DC02938707C01CC0371602405A
:101798005442370700201307C7049182BD8A369741
:1017A800082358429375F50F1377070833D5A70018
:1017B80001E73E85EFE09F9048C008C448C4B717CA
:1017C8000240DC438D46AD83FD8B13D737008A0773
:1017D800F18BD98F13F6370113F7370063F4C6007E
:1017E800138747FFB7170240DC4363CA0700B707F0
:1017F800002093878703BA978C23EFE03F8C08C8B3
:101808006FE0BF8AB7376E0193870760BDBF99C580
:10181800371702405C4BC98F5CCB8280B7170240F8
:10182800D84B1345F5FF798DC8CB828099C53717FA
:1018380002401C4FC98F1CCF8280B7170240984FB7
:101848001345F5FF798D88CF828099C537170240F7
:101858005C4FC98F5CCF8280B7170240D84F1345C1
:10186800F5FF798DC8CF828099C5371702405C474C
:10187800C98F5CC78280B7170240D8471345F5FF68
:10188800798DC8C78280B7370140938707C0630640
:10189800F500B7070040631DF5021E21BA21C207F3
:1018A800C18393F7F7F8D98FFA2193F7F7CFD98F38
:1018B8001EA1DE215EB59E211EB5B7370140938774
:1018C80007C06314F5009C251EB985475EA9828070
:1018D800B717004093870780631CF5001E21BA21C3
:1018E800C207C18393F7F7F8D98F1EA1DE215EA541
:1018F8008280B7370140938707C09DC16306F50012
:10190800B70700406317F5001E2193E717001EA1D3
:1019180039A0B717004093870780E307F5FE828058
:101928006306F500B70700406319F5001E21C207DA
:10193800C183F99BC207C183D9BFB71700409387FA
:101948000780E31EF5FCDDB75E21C207C18393F76C
:10195800F7F8C207C1835EA15E21CD8F5EA18280A8
:10196800EFE20FF41629F577FD17FD8EFE21DA2533
:101978002111D58F1EA95625FD779387379FFD8E98
:10198800DE212A84AE84D58F9625D58FB625D58FAE
:101998005EA55E29C207C18393F7F7CFD98F5EA9E9
:1019A8004800E933B7470140938707806315F4047B
:1019B800C24765453385A7028C408A05EFE00FF0E2
:1019C800930540062AC0EFE06FEF931445000245E7
:1019D80093054006EFE04FF1120593054006130505
:1019E8002503EFE0AFED3D89458D420541810AA40D
:1019F80061016FE08FEBB2476DBF5E2589C509674E
:101A0800D98F5EA5828079777D17F98FDDBF93F531
:101A1800F51F4EA182800A216D8D3335A00082808A
:101A2800EFE20FE8B707002003A54703B7157A00D0
:101A380093850520EFE08FE81375F50F2387A1AC98
:101A48009307803E3305F5022396A1AC6FE0EFE5DE
:101A5800EFE20FE52A84116511118545130515027A
:101A6800F13337051600854513050504EFF00FF52A
:101A7800930700047C803715014085473EC28A855C
:101A8800E147130505403EC4EFF0EFEB22C63744AB
:101A98000140B70708006C00130504803ECA02C85D
:101AA800231C0100753D854513050480B937710174
:101AB8006FE0AFDF511122C226C006C4AA843528C0
:101AC8002A84A6852685EF00707C15E19305000021
:101AD8002685EF00700C635C0500EF100023930768
:101AE8001002930500001CC12E85AD232A84A24054
:101AF80022851244824431018280411193171500D6
:101B080022C406C626C28583B706807F2A8463EF6F
:101B1800D700AA85EF00D011AA852285E92A2A8450
:101B2800B24022852244924441018280F5DBAA8793
:101B380063580500AA85EF00703DAA85212BC5B71B
:101B4800E98E13577541D5CEB70680001386F6FF88
:101B5800130717F8F18FD58F9376170091C2860770
:101B680013541740E545139717008144014337067E
:101B780000013305C300BA866347A7003303C500D5
:101B8800B306A740B294FD15139716000582F5F128
:101B9800A9CA17E7FF1F1307A75297E6FF1F9386E7
:101BA800E65108438C421C433EC0EF003036AA85FC
:101BB8000245EF00607E6346A00217E7FF1F130788
:101BC800275097E6FF1F9386664F08438C421C43B5
:101BD8003EC01522AA850245EF00007C6357050226
:101BE800890493D714403707003FBA975E043E94A0
:101BF80005BF8607850633F6B70065DEFD16158F27
:101C0800A1B78146B7058000FDB79387140093F408
:101C1800E7FFC1BF13D34501B7071000FD172A8797
:101C28001373F37F13D546019303F07FB3F2B70024
:101C38001375F57FF58FFD81FD82630273046305DB
:101C48007502611122C226C03A84B284631E03045D
:101C580033E7E20021E55D8E29CE3DEBA9CA1244A7
:101C68008244368521018280D18FADE3631303025C
:101C7800B3E2E200639F020099CA36858280B3E22C
:101C8800E20063950204630D65028546FDD5FD56A5
:101C9800EDB7E39CD5FEE5DDAE86C5B761D36396A7
:101CA800D50091C5AE8665BF21E18546CDD9FD56E3
:101CB8007DB781467DFB12448244368521018280AE
:101CC800D18F89E7E393D5FC814645BFF95675B7AF
:101CD800E39DD5FCE3EB57FCE395F2FCE3E784FCDA
:101CE8008146E37E94F675BFE391D5FCE34F65FA30
:101CF800E352A3FE7DB74111370780007D1793D6C5
:101D0800750126C293547501B377A70022C46D8F5D
:101D180093F4F40F1354F50106C613F5F60FFD817D
:101D28008E070E073386A4406301B404635FC000C6
:101D380031ED630E07109306F6FF638B062A9305B1
:101D4800F00F630AB616368689A861C23306954035
:101D58006399041CFDCB9306F6FF6385062C1303D9
:101D6800F00F630866143686E1A2A2866357C01492
:101D780071C19305F00F6380B414B70500044D8F4B
:101D8800ED4563D6C51E8507268689A09306F00F04
:101D98006383D412B7060004558FED45854663CD9D
:101DA800C50093060002918EB316D7003356C700BC
:101DB8003337D000B366E600958F37070004B3F6D3
:101DC800E700D5E613F77700268651C313F7F70027
:101DD80091466303D7009107370700047D8F25CB11
:101DE800130516001307F00FA286630EE506139776
:101DF80067001375F50F2583B24022445E05598D9F
:101E0800FE069244558D410182809386140093F614
:101E1800E60F63930614D9E86382072075CB3385F0
:101E2800E740B7060004E98E63820622B307F7404D
:101E38002E848DA809CF9305F6FF6383051A130531
:101E4800F00F630AA6062E8625BF2E84BA871307CD
:101E5800F00F8D836310E60CC9CF81461305F00F90
:101E68003707400051BF1305F00F014771B77D17C1
:101E7800B3F6E700368536C0EF00B06282466D15CE
:101E8800B396A60063409506058D930715001307C2
:101E980000021D8F3397E600B3D7F6003337E00012
:101EA800D98F014613F7770015F33DB763970714E9
:101EB8004DD72E84BA878D8345B729C233069540FE
:101EC800FDE4C9D79305F6FF638C05101303F00FE3
:101ED800E30266FE2E86ED4563D5C512930717000B
:101EE8002A86EDB5B70700FCFD173386A440F58FA9
:101EF80055BFA2861305F00F0147FDBD13861400D8
:101F08009375E60FCDEDE5E86383071263130712B7
:101F18008D830146A60713D797001375F60FA2867F
:101F2800E1BD9306F00FE306D5F8B7060004D58F98
:101F38006D438546634DC30093060002918EB396A8
:101F4800D70033D6C700B337D000B366F600B3075F
:101F5800D740AA842E8495B5B386E7403706000497
:101F6800758E3DEA81FA81460145014771B59305B1
:101F78000002918DB315B7003357C7003336B00050
:101F8800518FBA97370700047D8FE30D07E2138658
:101F980014001305F00F0147E300A6E6B706007E1C
:101FA80013D71700FD16858B758FD98FE5BD93055F
:101FB800F00FE301B5F0B7050004CD8F29BF9305F5
:101FC800F00FE302B6EA3E979357170093F67700AF
:101FD800E39E06DE8D833DBFB306F7402E8459BDD0
:101FE800BA97370700047D8F0946854445FBD9BB5E
:101FF800998F8544D9B3E38F07EAE31007E68D8309
:10200800A1BD93050002918DB395B700B3D7C70062
:102018003336B000D18FBA97AA84ADB729D72E84AA
:10202800BA87FDB5B307F7402E84854479B3BA87DC
:10203800C5B5BA97B7060004FD8E0146C1DE37075D
:1020480000FC7D17F98F05468D83E9B5AA8701DD68
:102058008D83C9B51301C1FD9357750126CC93161D
:10206800950006D022CE93F7F70FAE84A5821357BA
:10207800F501E1C31306F00F6382C70C8E0637061D
:102088000004D18E138317F80144814293D7740159
:102098009395940093F7F70FA581FD80B5CB1306B0
:1020A800F00F6383C70A8E0537060004D18D938726
:1020B80017F80145BD43334697003303F34063EEF9
:1020C800831A97130000938363EF0A041E941C403D
:1020D8009E9782879307F00F0147825072441395A9
:1020E8007701598D7E06E244518D130141028280A9
:1020F8008D476389F2008547639DF20E2A868147E2
:102108000147E1BF01469307F00F37074000F1B7D9
:10211800D9E913641400B54733469700E3EC87FA0E
:1021280097150000938585ED0A042E941C40AE9700
:102138008287A1EA11440143854289BF95EE214473
:102148001303F00F894299B795E1136424007514BD
:10215800AD4533469700E3E485FA171500001305EB
:1021680065ED0A042A940C40AA958285136434000C
:102178009307F00F0D453DBF31441303F00F8D4217
:1021880031B736853AC236C0EF00B0318246930780
:10219800B5FF1247B396F6009307A0F83383A7401C
:1021A80001448142E5B52E851AC836C616C43AC21E
:1021B8002EC0EF00102F82459307B5FF1247B39545
:1021C800F5009307A0F8898FA242B2464243014521
:1021D800D5B5130313F089473A85E39BF2F02A86B5
:1021E8009307F00F0147D5BD8D47E30DF5F0268520
:1021F800AE862A869307F307635FF00213F776002B
:1022080019C713F7F60091456303B700910637071E
:102218000008758F19C7B70700F8FD17FD8E9307DB
:1022280003081307E00FE347F7EA139766002583CF
:1022380093F7F70F5DB5854599C79D8D6D45814726
:102248000147E34CB5E81307E3093397E600333752
:10225800E000B3D7B600D98F13F7770019C713F783
:10226800F70091466303D7009107370700047D8F75
:10227800630D0710854701478DB5C16793945500D5
:10228800FD1713D70401E58F3AC03EC263FEB60AB4
:102298003685BA8532C81AC636C4EFD03FE29247AF
:1022A800A24632434246B302F5022A84B6877D131A
:1022B800814682453E8532CA36C816C61AC4EFD052
:1022C800BFE2C246B24293170501D58F2243524658
:1022D80063F85700A6979306F4FF63F3970A3684CA
:1022E8008245B38757403E8532CA1AC83EC6EFD0EA
:1022F800FFDC924782452AC4B303F502B2473E8504
:102308001EC2EFD07FDE924393160501A2424243DC
:10231800524663F17602B3879600B3B5D7001385AA
:10232800F2FFBE8699E563F67700F912B386970047
:1023380011A0AA8213170401B386764033675700A9
:10234800B336D000D98E7DB5824593D716003E8529
:1023580032CA1AC836C63EC4EFD05FD6B2469247D4
:102368005246FE06B302F5024243A2472A84C182BE
:1023780089B726852A8661B3014637074000B1BB75
:10238800E3FF57F47914A697A1BF9A0713D79700CC
:102398008147A1B32685A1B513567501370780007B
:1023A8007D1793D675011376F60F1303F00FB372EA
:1023B800A7009357F5016D8F13F5F60FFD8163069E
:1023C8006602630A650005EE11E929CB639F0204E2
:1023D800B9C92E858280094501EB19E2E38A02FE1C
:1023E800638BB7020545A1E38280639C0202E31B6D
:1023F800C5FE094575FBE397B7FE014582807DD18F
:10240800E392B7FEE340C5FE6347A600E36C57FCC2
:102418000145E3FBE2FC81CB3E858280E39402FC2C
:102428008280094582807D558280E381B7FE5DBF49
:10243800011126CA935475011316950006CE22CCB5
:1024480093F4F40F25829356F501638704109307DC
:10245800F00F6388F4100E06B70700045D8E9384AE
:1024680014F80147814293D775011394950093F7A7
:10247800F70F2580FD81E9C71305F00F638FA704C7
:10248800938717F8370500040E04498C33859700A5
:1024980093041500294326C08147634CE30E33C3D8
:1024A800B60089469A8363C9E6047D17854563E7C4
:1024B800E514638ED70A05471E836391E7068147B3
:1024C8008143F240624413957701336575007E03BA
:1024D800D24433656500056182801385F40F49CCC9
:1024E8009384041033C3B60026C013673700A94489
:1024F8009A8363C4E4208D4785463397E600937634
:10250800075399CE89476384F2068D476384F202A4
:102518009687054732841E83E383E7FA024591A232
:102528009376072481EA1377870869CBAE832286DE
:10253800BE82C9BF01439307F00FB703400051B7EC
:1025480051E026859304150013671700294326C018
:102558008547E356E3F435A821E6114781448542CF
:1025680019B715EA21479304F00F8942EDBD1E8380
:102578009307F00F8143B1B7938704103EC01367E8
:1025880027002943B9438947E35BE3F02D47E38FED
:10259800E3F8B68385BF31479304F00F8D42E1B568
:1025A80032852EC436C232C0ED2D02469307B5FFE0
:1025B8009304A0F89246A2453316F600898C014789
:1025C800814255B5228532C816C63AC42EC236C0D5
:1025D800C92D9307B5FF3385A4401305A5F82247F5
:1025E800930415008246294326C03314F40092450B
:1025F800B24242468147E354E3EA61BFC1631387AD
:10260800F3FF9356060193520401798E618FB30547
:10261800C7023387E60293D705013386C2023A968A
:10262800B297B386560263F3E7009E9641667D161D
:1026380033F7C700F18D42072E971316670013D49E
:1026480007016983B337C0003694D98F1A045D8CAB
:10265800B7070008E18F91C7024593571400058812
:102668005D8C9307F5076350F0041377740019C75E
:102678001377F40091466303D70011043707000865
:10268800618F19C7B70700F8FD177D8C93070508F8
:102698001307E00F634AF7049313640093D393007E
:1026A80093F7F70F39BD054799C71D8FED46814749
:1026B8008143E3C8E6E01305E5093315A400B357E1
:1026C800E4003337A000D98F13F7770019C713F741
:1026D800F70091466303D7009107370700047D8F01
:1026E80001CB85478143F1BB9307F00F8143D1BBF1
:1026F8009A0793D397008147E9B33D450143B70350
:102708004000E300A7DCAD438D4749B5370780009B
:10271800411193D675017D17B377A70022C46D8F39
:102728001354F50126C206C6935475011303F00F1E
:1027380013F5F60F93F4F40FA2868E07FD81131696
:1027480037006303650493C515003387A440630FFE
:10275800B4006356E03035E1630C06149306F7FFC6
:10276800638E0628630F67023687A9A86355E03091
:102778006DC963886402B70500044D8EED4563DFBB
:10278800E512850726878DA8138714F045E693C5BB
:1027980015006301B40E630A0718638604102E84BB
:1027A800B2878D83937614001305F00FBDCB814655
:1027B8001305F00FB7074000ADA0E38464FEB70629
:1027C8000004558EED45854663CDE500930600026D
:1027D800998EB316D6003356E6003337D000B36669
:1027E800E600958F37070004B3F6E70063910610FB
:1027F80093F677002687CDCE93F6F70011466383CC
:10280800C6009107B7060004FD8EDDC20507130652
:10281800F00F937614006308C70C9A071375F70F27
:10282800A583B24022445E055D8DFE069244558D17
:1028380041018280E311B4F631C3639F041A130780
:10284800F00FB5C79305F7FF638705121303F00F61
:102858006304671A6D476359B71A930716002A87E6
:1028680061BF39C69305F7FF63870510E30B67F26D
:102878002E8729B701C7E1D4814725B713871400EC
:102888009375E70F63940514639704166385071A15
:102898006315061A8D830147A607A5831375F70FDD
:1028A80093761400BDBF1307F00FFDE72E84B2879F
:1028B8009306F00F8D83E307D7EEF9BF9305000267
:1028C800998DB315B600B335B0003356E6004D8E7A
:1028D800B297370700047D8F01DF138714001306B2
:1028E800F00F6312C70A1305F00F81471DBF7D174C
:1028F8007D8F3A853AC0752602476D15B316A70035
:1029080063499504058D93071500130700021D8F71
:102918003397E6003337E000B3D7F600D98F014785
:1029280093F67700E39A06ECF1BD1387140013774A
:10293800E70F1DE7CDE8E5CF31DE3387C740B7069F
:102948000004F98E63880610B307F64001472E8409
:10295800C1BFB70700FCFD173387A440F58FC9B77F
:102968003387C740B7060004F98ED1E259F3814690
:10297800014581477DB5B297B7060004FD8E09472A
:102988008544E38706E63706007E93D617007D1652
:10299800858BF18ED58F69B79306F7FFC1C61303F0
:1029A800F00F2E84630A6704ED45054763CCD50014
:1029B80013070002158F3397E700B3D6D7003337D4
:1029C800E000558FB307E640AA8429BD9305F00FB0
:1029D800E30BB7F03E969357160093F67700E39D06
:1029E80006E08D8355BD91EFE30306DC4DBB33074D
:1029F800F6402E84FDBD91E7B28765B3918F85447B
:102A0800D5B3E30006DA65B3130700020D8F3397D9
:102A1800E700B3D5B700B337E000DD8DB387C50055
:102A2800AA8445BDB307F6402E84854465BB21D2F0
:102A38002E84B28785B5B287B1BDB297B7060004B8
:102A4800FD8E0147D9DE370700FC7D17F98F8D838E
:102A5800054799B509DFBA878D83014735BDE30678
:102A680007ECB30695403687E38104E43707000492
:102A7800D98F2E8415BFE30307E0B305954099E08D
:102A88002E87C1B337070004D98FE9B39356750170
:102A9800370780007D1713D6750193F6F60F1303D9
:102AA800F00FB377A7001376F60F6D8F638B660070
:102AB8009307F00F01456303F60082803335E00089
:102AC80082800545F5D78280370680001357750147
:102AD8009307F6FF1377F70F9305E007B3F6A70000
:102AE8009357F50163DBE5009305D00963D9E50049
:102AF800370500807D153E958280014582809305CB
:102B08005009D18E63CDE500130660093307E6400E
:102B1800B3D6E6003305D040F5F336858280130737
:102B2800A7F6B396E600FDB7511106C422C226C027
:102B380021C11357F541B344A700998CAA8726856C
:102B480013D4F701B92AAA861305E009B307D540BB
:102B580013076009634BF7022147638BE608138567
:102B680086FF3397A4002607258313F5F70F21A0C6
:102B7800014401450147A2409317F40112445E0540
:102B8800598D82445D8D3101828013079009634419
:102B9800F70415471386B6FF6384E600B394C400B0
:102BA800370600FC7D1693F5740033F7C40099CD01
:102BB800BD889145638CB4001107B7050004F98DF1
:102BC80091C51305F009718FB307D5401A072583FE
:102BD80013F5F70F4DB71387B60115463397E40081
:102BE800158E33D6C4003337E000B364E6004DBF1A
:102BF80013979400258313056009B5BF9357750192
:102C080093F7F70F41119386170022C41317950005
:102C180006C693F6E60F25831354F5018DC2935625
:102C280037009387073876071315F401B24022441A
:102C3800D207D58FC98FBE853A85410182808DEB39
:102C480021C73A853AC0B128A947024763C5A704F6
:102C5800AD46898E93075501B356D7003317F70051
:102C680093079038B206898FB18293F7F77F6DBFCB
:102C780019CF93563700B7070800DD8EB2067607DE
:102C8800B1829307F07F4DB78147814671BF9307A3
:102C9800F07F814651BF930655FFB316D700014711
:102CA800C1B7C1676375F5029337051093C717005D
:102CB8008E07130700021D8F3355F5009707000094
:102CC8009387473AAA9788233305A7408280B70796
:102CD8000001637FF500C1473355F50097070000F1
:102CE80093874738AA97882341473305A7408280AE
:102CF800E1473355F500970700009387A736AA9751
:102D0800882321473305A740828003A581808280DC
:102D18004144432054494D200D0A000053797374EF
:102D2800656D436C6B3A0000504F574552000000E8
:102D380073713120000000002061646331200000BD
:102D4800646331200000000020726D7331200000A0
:102D5800737132200000000020616463322000009B
:102D680020726D73322000007020000020667020F1
:102D7800000000000D0A0D0A000000004920202074
:102D88002020202020000000562020202020202065
:102D980020000000502020202020202020000000BB
:102DA80046502020202020202000000000008042E3
:102DB8000080BB454545013CCD10753E0000000034
:102DC8007B14AE47E17A843F9A9999999999B93FCA
:102DD800000000000000004F00000007000700147A
:102DE8007F147F14242A7F2A122313086462364929
:102DF8005522500005030000001C2241000041221A
:102E08001C0014083E081408083E0808005030004A
:102E18000008080808080060600000201008040284
:102E28003E5149453E00427F40004261514946219A
:102E380041454B311814127F1027454545393C4A06
:102E48004949300171090503364949493606494956
:102E5800291E0036360000005636000008142241AC
:102E68000014141414140041221408020151090614
:102E7800324979413E7E1111117E7F494949363EDA
:102E8800414141227F4141221C7F494949417F09F3
:102E98000909013E4149497A7F0808087F00417FB6
:102EA80041002040413F017F081422417F404040BB
:102EB800407F020C027F7F0408107F3E4141413E63
:102EC8007F090909063E4151215E7F0919294646B5
:102ED8004949493101017F01013F4040403F1F20DE
:102EE80040201F3F4038403F6314081463070870B0
:102EF80008076151494543007F4141000204081019
:102F0800200041417F00040201020440404040404B
:102F1800000102040020545454787F48444438384F
:102F280044444420384444487F3854545418087E54
:102F38000901020C5252523E7F0804047800447D75
:102F480040002040443D007F1028440000417F405D
:102F5800007C041804787C08040478384444443815
:102F68007C14141408081414187C7C0804040848F9
:102F780054545420043F4440203C4040207C1C20B2
:102F880040201C3C4030403C44281028440C505001
:102F9800503C4464544C44000836410000007F0013
:102FA80000004136080008082A1C08081C2A0808DE
:102FB8000000000000000000C2F2FFFF1CF1FFFF4C
:102FC80046F1FFFF30F2FFFF46F1FFFF4CF1FFFF34
:102FD80046F1FFFF30F2FFFF1CF1FFFF1CF1FFFF7E
:102FE8004CF1FFFF30F2FFFF1EF2FFFF1EF2FFFF62
:102FF8001EF2FFFF4CF1FFFFDCF0FFFFDCF0FFFFEC
:1030080006F1FFFF7AF3FFFF06F1FFFF0CF1FFFF68
:1030180006F1FFFF7AF3FFFFDCF0FFFFDCF0FFFFB4
:103028000CF1FFFF7AF3FFFFDEF1FFFFDEF1FFFF98
:1030380064F3FFFFCEF0FFFF48F3FFFFCEF0FFFF82
:1030480064F3FFFFA4F0FFFFA4F0FFFF48F3FFFFC6
:1030580064F3FFFFA2F1FFFFA2F1FFFFA2F1FFFF60
:103068000001020203030303040404040404040427
:1030780005050505050505050505050505050505F8
:1030880006060606060606060606060606060606D8
:1030980006060606060606060606060606060606C8
:1030A80007070707070707070707070707070707A8
:1030B8000707070707070707070707070707070798
:1030C8000707070707070707070707070707070788
:1030D8000707070707070707070707070707070778
:1030E8000808080808080808080808080808080858
:1030F8000808080808080808080808080808080848
:103108000808080808080808080808080808080837
:103118000808080808080808080808080808080827
:103128000808080808080808080808080808080817
:103138000808080808080808080808080808080807
:1031480008080808080808080808080808080808F7
:1031580008080808080808080808080808080808E7
:10316800000800000008000000AED580A81FD300AA
:10317800408D142000A1C8DA12817FD9F1DB20A488
:10318800A62EAF0001020304050607080102030486
:1031980005060708006CDC020204060804080C1087
:1031A80008101820102030402040608001020304DD
:1031B80005060708010203040506070800000000C9
:1031C80000000000000000000000000000000000F7
:1031D80000000000000000000000000000000000E7
:1031E80000000000000000000000000000000000D7
:1031F80000000000000000000000000000000000C7
:1032080000000000000000000000000000000000B6
:1032180000000000000000000000000000000000A6
:103228006042A20D0000803F5C000020000000000A
:00000001FF
